:100000000C945E000C9486000C9486000C942A04D8
:100010000C942A040C942A040C9486000C948600F8
:100020000C9486000C9486000C9486000C94620557
:100030000C9486000C9486000C9486000C94860028
:100040000C94E0030C9486000C9486000C948600BB
:100050000C9486000C9486000C9486000C94860008
:100060000C9434040C948600000000080002010087
:100070000003040700000000000000000000000072
:10008000250028002B0000000000240027002A0083
:10009000040404040404040402020202020203032E
:1000A0000303030301020408102040800102040836
:1000B0001020010204081020BA055E0811241FBE9A
:1000C000CFEFD8E0DEBFCDBF22E0A6E4B1E001C0B3
:1000D0001D92AB32B207E1F711E0A0E0B1E0E0E43D
:1000E000FAE102C005900D92A634B107D9F710E0ED
:1000F000CDE5D0E004C02197FE010E94010BCC3574
:10010000D107C9F70E9431060C94130D0C9400001E
:10011000CF93DF9390E0FC01EC55FF4F2491FC015D
:10012000E057FF4F84918823C1F090E0880F991F1A
:10013000FC01EA57FF4FC591D491FC01E458FF4FF1
:10014000A591B4919FB7F8948881E22FE0958E2312
:1001500088838C91E823EC939FBFDF91CF91089522
:1001600090E0FC01E859FF4F2491FC01EC55FF4F52
:100170003491FC01E057FF4FE491EE23B1F12223CB
:1001800039F1233091F038F42130A9F0223001F513
:1001900084B58F7D12C0273091F02830A1F0243033
:1001A000B9F4809180008F7D03C0809180008F77AB
:1001B000809380000DC084B58F7784BD09C0809185
:1001C000B0008F7703C08091B0008F7D8093B00026
:1001D000F0E0EE0FFF1FE458FF4FA591B4918FB7E9
:1001E000F894EC913E2B3C938FBF0895E0910F0261
:1001F000F09110020190F081E02D682F8FE092E0E5
:1002000009943FB7F8948091E9019091EA01A09197
:10021000EB01B091EC0126B5A89B05C02F3F19F06A
:100220000196A11DB11D3FBFBA2FA92F982F882776
:10023000820F911DA11DB11DBC01CD0142E0660FD1
:10024000771F881F991F4A95D1F708958F929F9223
:10025000AF92BF92CF92DF92EF92FF926B017C013F
:100260000E9401014B015C01C114D104E104F104BD
:10027000F1F00E940101DC01CB0188199909AA095A
:10028000BB09883E9340A105B10570F321E0C21A75
:10029000D108E108F10888EE880E83E0981EA11CC1
:1002A000B11CC114D104E104F10419F7DDCFFF90B2
:1002B000EF90DF90CF90BF90AF909F908F90089578
:1002C000CF92DF92EF92FF920F931F93CF93DF9322
:1002D0006C017A018B01C0E0D0E0CE15DF0589F01A
:1002E000D8016D918D01D601ED91FC910190F081C5
:1002F000E02DC6010995892B11F47E0102C02196DB
:10030000ECCFC701DF91CF911F910F91FF90EF903C
:10031000DF90CF900895089581E090E03091DB0167
:100320002091DA01321710F480E090E091958195E8
:10033000910908958091DB019091DA01891730F4D9
:100340008F5F8093DB0180E090E008958FEF9FEF57
:1003500008958091DA0190E02091DB01821B9109E0
:10036000089585ED8093BC008091BC0084FDFCCF96
:100370001092D701089540916901262F30E0240F93
:10038000311D21323105DCF42091D7012430C9F42C
:10039000FC0180E090E0861758F4309169012191CA
:1003A000DC01A95BBE4FA30FB11D2C930196F3CFC7
:1003B00080916901680F6093690180E0089581E090
:1003C000089582E00895CF92DF92EF92FF920F930B
:1003D0001F93CF93DF937C01262F972F8A01809163
:1003E000D201882391F0C62FD72F6E01C40ED51EDF
:1003F000CC15DD0571F06991D701ED91FC9101906B
:10040000F081E02DC7010995F3CF642F822F0E9460
:10041000BB01C801DF91CF911F910F91FF90EF9029
:10042000DF90CF900895CF93DF931F92CDB7DEB7C3
:1004300069832091D2012223D1F02091D80120326A
:1004400040F021E030E0FC013383228380E090E043
:1004500015C08091D901E82FF0E0EE54FE4F99814C
:1004600090838F5F8093D9018093D80105C061E0AC
:10047000CE0101960E94BB0181E090E00F90DF91D8
:10048000CF910895CF93FC01C48121E02093D20144
:10049000C09346011092D9011092D8018385682B30
:1004A0008DEE91E00E9413028091D801813208F014
:1004B00046C09091D7019111FCCF92E09093D70163
:1004C00091E09093D6019FEF90938E011092B0012E
:1004D0008093AF01A2EBB1E02FE831E0F9019E2F4C
:1004E000921B981718F49D919193F9CF1092B10136
:1004F0008091B101CC0FC82BC093B1018091D5017F
:10050000813061F41092D5018091B1018093BB00DC
:100510008091BC0083FDF8CF85EC01C085EE80930F
:10052000BC008091D7018230E1F380918E018F3F32
:1005300031F080918E01803211F080918E01109205
:10054000D9011092D8011092D201CF9108950F9342
:100550001F93CF938C01C62F0E9442026C2F6460C0
:10056000C8010E9442026C2F6B7FC8010E944202A8
:1005700083EC90E00197F1F7CF911F910F910895CF
:10058000FF920F931F93CF93DF931F92CDB7DEB7E8
:100590008C01F62E962F907F692F642BC80149831A
:1005A0000E94A70280E1F89EB00111244981642BCA
:1005B000C8010F90DF91CF911F910F91FF900C9484
:1005C000A702CF93DF93CDB7DEB728970FB6F89485
:1005D000DEBF0FBECDBF962F28E0E6E0F1E0DE01E2
:1005E000119601900D922A95E1F720911702622F42
:1005F00070E0492F50E04617570714F09FEF920F15
:10060000FE013196E90FF11DE90FF11D9081682F70
:10061000690F606840E08FE092E028960FB6F8948A
:10062000DEBF0FBECDBFDF91CF910C94C00241E081
:100630000E94C00281E090E00895089580E090E07B
:100640000895009769F0FC0101900020E9F73197C7
:10065000AF01481B590BBC018FE092E00C94600184
:1006600080E090E008958F929F92AF92BF920F9397
:100670001F93CF93DF93CDB7DEB7A1970FB6F89452
:10068000DEBF0FBECDBF19A2423008F44AE08E0192
:100690000F5D1F4F842E912CA12CB12CA50194012C
:1006A0000E94DF0AE62FB901CA0101501109EA30A0
:1006B00014F4E05D01C0E95CD801EC93232B242BFA
:1006C000252B61F7C8010E942103A1960FB6F8946B
:1006D000DEBF0FBECDBFDF91CF911F910F91BF90B5
:1006E000AF909F908F900895CF92DF92EF92FF92FC
:1006F000CF93DF9397FF19C06B017C018DE20E94BD
:10070000F600EC0166277727CB016C197D098E096D
:100710009F094AE00E9433038C0F9D1FDF91CF9108
:10072000FF90EF90DF90CF9008954AE0DF91CF9156
:10073000FF90EF90DF90CF900C943303EF92FF92F5
:100740000F931F93CF93DF93EC017B018A01888184
:100750009981009729F02A813B8124173507F8F405
:10076000B8016F5F7F4F0E94340C009759F0998356
:1007700088831B830A832C813D81232B81F4FC0118
:1007800010820DC088819981009711F00E949C0B06
:10079000198218821D821C821B821A8207C01D8347
:1007A0000C83B701888199810E940C0DCE01DF91E5
:1007B000CF911F910F91FF90EF9008950E94FE0C32
:1007C0001F920F920FB60F9211242F933F938F9386
:1007D0009F93AF93BF938091E5019091E601A09123
:1007E000E701B091E8013091E40123E0230F2D37B8
:1007F00020F40196A11DB11D05C026E8230F029625
:10080000A11DB11D2093E4018093E5019093E601C1
:10081000A093E701B093E8018091E9019091EA018A
:10082000A091EB01B091EC010196A11DB11D809347
:10083000E9019093EA01A093EB01B093EC01BF9121
:10084000AF919F918F913F912F910F900FBE0F907D
:100850001F9018951F920F920FB60F9211240F90B0
:100860000FBE0F901F9018951F920F920FB60F9208
:1008700011242F933F934F935F936F937F938F93A5
:100880009F93AF93BF93EF93FF938091B900887FBD
:10089000803609F49CC068F5883209F45BC090F496
:1008A000803109F454C038F4882309F4F6C0883044
:1008B00009F44DC0F6C0883109F44CC0803209F407
:1008C0005DC0EFC0803409F468C048F4803309F497
:1008D00055C0883309F0E5C080938E01D8C08035BB
:1008E00009F44FC0883509F45DC0883409F0D9C0D7
:1008F000D6C0883909F4C7C0A8F4883709F467C09E
:1009000038F4883609F463C0803709F460C0C9C080
:10091000883809F4B8C0803909F45FC0803809F01C
:10092000C0C05BC0803B09F486C038F4803A09F44B
:1009300066C0883A09F47FC0B4C0803C09F4A7C0FF
:10094000883C09F4A4C0883B09F48AC0AAC08091FD
:10095000B10110C09091B0018091AF01981770F56E
:10096000E091B00181E08E0F8093B001F0E0E1579B
:10097000FE4F80818093BB0085EC86C080938E0102
:100980008EC0E091B00181E08E0F8093B001809124
:10099000BB00F0E0E157FE4F80839091B001809161
:1009A000AF016EC0E091B00181E08E0F8093B00185
:1009B0008091BB00F0E0E157FE4F80838091D6012B
:1009C00081116DC081E08093D50184EA61C083E02C
:1009D0008093D70110928D01CFCF80918D0180320D
:1009E00008F051C0E0918D0181E08E0F80938D0160
:1009F0008091BB00F0E0E359FE4F8083BDCF85ECD2
:100A00008093BC001092D70180918D01803230F428
:100A1000E0918D01F0E0E359FE4F108260918D016D
:100A200070E0E0916B01F0916C018DE691E0099529
:100A300010928D0136C084E08093D70110926A0134
:100A400010926901E0916701F09168010995809128
:100A50006901811105C081E080936901109247010D
:100A6000E0916A0181E08E0F80936A01F0E0E95B1A
:100A7000FE4F80818093BB0090916A018091690153
:100A8000981708F479CF85E88093BC000AC085ECFC
:100A90008093BC001092D70104C010928E010E9476
:100AA000B101FF91EF91BF91AF919F918F917F9194
:100AB0006F915F914F913F912F910F900FBE0F90CB
:100AC0001F9018951F920F920FB60F9211242F931B
:100AD0003F934F935F936F937F938F939F93AF93C6
:100AE000BF93EF93FF938091E0019091E101A0917A
:100AF000E201B091E3010196A11DB11D8093E001D7
:100B00009093E101A093E201B093E3018034924419
:100B1000AF40B105F0F020E030E040E85FE36091E5
:100B2000DC017091DD018091DE019091DF010E9476
:100B3000C8096093DC017093DD018093DE0190931E
:100B4000DF011092E0011092E1011092E201109297
:100B5000E301FF91EF91BF91AF919F918F917F91B1
:100B60006F915F914F913F912F910F900FBE0F901A
:100B70001F9018951F93CF93DF93EDEEF1E0138252
:100B8000128288EE93E0A0E0B0E084839583A68390
:100B9000B78382E191E091838083CDE0D2E01D8232
:100BA0001C8284E291E09B838A8387E28E8380E1CA
:100BB0008B8712E01C871D861F861E86198A188A5D
:100BC0001B8A1A8A40E050E068E371E08BE192E012
:100BD0000E949E031D8A1C8A1F8A1E8A198E188EE7
:100BE00040E050E068E371E081E292E00E949E0301
:100BF00084EF91E09983888343E050E06CE271E0F8
:100C00008BE192E00E949E0348E050E060E371E0D7
:100C100081E292E00E949E03E1E0F2E081E090E058
:100C20009183808312821382148215829783868334
:100C300080E49CE9A0E0B0E080879187A287B38739
:100C4000EDEFF1E01083118212821382E9EFF1E0FF
:100C500083E08083118212821382DF91CF911F91F2
:100C60000895CF93DF9300D000D0CDB7DEB778944E
:100C700084B5826084BD84B5816084BD85B58260A1
:100C800085BD85B5816085BD80916E008160809352
:100C90006E001092810080918100826080938100BB
:100CA00080918100816080938100809180008160CB
:100CB000809380008091B10084608093B100809126
:100CC000B00081608093B00080917A00846080934E
:100CD0007A0080917A00826080937A0080917A0015
:100CE000816080937A0080917A00806880937A0096
:100CF0001092C1001092DB011092DA011092D9011A
:100D00001092D8011092D70181E08093D601109201
:100D1000D50182E10E94B00083E10E94B000809181
:100D2000B9008E7F8093B9008091B9008D7F809348
:100D3000B90088E48093B80085E48093BC001092E9
:100D4000140280911902823018F098E090931402F6
:100D50008093170262E370E080E090E00E94260139
:100D600060911A028FE092E00E94420268EE73E006
:100D700080E090E00E94260160E38FE092E00E9414
:100D8000A7020BE416E4C8010197F1F760E38FE0D6
:100D900092E00E94A702C8010197F1F760E38FE09B
:100DA00092E00E94A70283E592E00197F1F760E2EA
:100DB0008FE092E00E94A70260911402606240E01E
:100DC0008FE092E00E94C00284E08093150240E030
:100DD0006CE08FE092E00E94C00240E061E08FE0B2
:100DE00092E00E94C0020BE31FE1C8010197F1F7F6
:100DF00082E08093160240E066E08FE092E00E947D
:100E0000C00240E062E08FE092E00E94C002C801B0
:100E10000197F1F788E080931A0260E08FE092E09A
:100E20000E94420260E080E00E94E10240912502BF
:100E30005091260260912102709122028FE092E08F
:100E40000E94600160E08DE00E94E10240911F027B
:100E50005091200260911B0270911C028FE092E081
:100E60000E946001F894109280001092810010920C
:100E700085001092840080918100886080938100B9
:100E80008091810081608093810060910702709160
:100E9000080280E090E00E9471086B017C01609183
:100EA000090270910A0280910B0290910C020E943B
:100EB00071089B01AC01C701B6010E94D2089B01D9
:100EC000AC0160E074E284E79BE40E94340A20E015
:100ED00030E040E85FE30E94C7090E94A60A6093E1
:100EE00003027093040280930502909306027093AC
:100EF00089006093880080916F00826080936F000A
:100F000078948091FD010E9488008091F9010E94EF
:100F1000880000E010E08091030290910402A0910B
:100F20000502B091060289839A83AB83BC838090CB
:100F3000E0019090E101A090E201B090E30160E057
:100F400088E00E94E102C090DC01D090DD01E090D9
:100F5000DE01F090DF01A7019601C701B6010E94F2
:100F6000DA0A882319F089E391E01AC026013701D3
:100F7000E89477F82FEF3FEF4FE75FE7C301B20147
:100F80000E94DA0A81110FC02FEF3FEF4FE75FE7B2
:100F9000C301B2010E946C0818162CF48DE391E095
:100FA0000E94210372C02FEF3FEF4FE75FE4C701BC
:100FB000B6010E94D50A18161CF481E491E0F0CF26
:100FC0002FEF3FEF4FE75FECC701B6010E946C08BF
:100FD00087FDF3CF20E030E0A901C701B6010E94F0
:100FE0006C0887FF07C08DE20E94F600F7FAF094C4
:100FF000F7F8F0942AE037ED43EA5BE3C701B60166
:101000000E94C8092B013C010E94A60A6B017C01C9
:101010000E9471089B01AC01C301B2010E94C70983
:101020002B013C014AE0C701B6010E9433038EE266
:101030000E94F60020E030E040E251E4C301B2013A
:101040000E94D2086B017C010E94A60A2B01612C30
:10105000712C4AE0C301B2010E943303C301B20103
:101060000E9471089B01AC01C701B6010E94C7092B
:1010700020E030E040E251E40E94D2080E94A60A3B
:1010800080E090E04AE00E94330361E080E00E944B
:10109000E102C501B4010E94740361E089E00E948D
:1010A000E10269817A818B819C810E947403011520
:1010B000110509F430CF0E9400002DCFCF93DF93AC
:1010C000CDE0D2E08C899D890E949C0B8E859F8506
:1010D000DF91CF910C949C0B0E94AE0808F481E044
:1010E0000895E89409C097FB3EF49095809570951B
:1010F00061957F4F8F4F9F4F9923A9F0F92F96E964
:10110000BB279395F695879577956795B795F111D8
:10111000F8CFFAF4BB0F11F460FF1BC06F5F7F4F75
:101120008F4F9F4F16C0882311F096E911C0772387
:1011300021F09EE8872F762F05C0662371F096E890
:10114000862F70E060E02AF09A95660F771F881F5F
:10115000DAF7880F9695879597F90895990F000803
:10116000550FAA0BE0E8FEEF16161706E807F90779
:10117000C0F012161306E407F50798F0621B730B14
:10118000840B950B39F40A2661F0232B242B252B95
:1011900021F408950A2609F4A140A6958FEF811D38
:1011A000811D08950E94E5080C9456090E94480983
:1011B00038F00E944F0920F0952311F00C943F095C
:1011C0000C94450911240C948A090E94670970F354
:1011D000959FC1F3950F50E0551F629FF001729FDC
:1011E000BB27F00DB11D639FAA27F00DB11DAA1FEB
:1011F000649F6627B00DA11D661F829F2227B00D38
:10120000A11D621F739FB00DA11D621F839FA00DC2
:10121000611D221F749F3327A00D611D231F849F12
:10122000600D211D822F762F6A2F11249F57504069
:101230009AF0F1F088234AF0EE0FFF1FBB1F661FE4
:10124000771F881F91505040A9F79E3F510580F0AD
:101250000C943F090C948A095F3FE4F3983ED4F361
:10126000869577956795B795F795E7959F5FC1F751
:10127000FE2B880F911D9695879597F9089597F9FC
:101280009F6780E870E060E008959FEF80EC08952C
:1012900000240A9416161706180609060895002455
:1012A0000A9412161306140605060895092E0394CF
:1012B000000C11F4882352F0BB0F40F4BF2B11F443
:1012C00060FF04C06F5F7F4F8F4F9F4F089557FDA2
:1012D0009058440F551F59F05F3F71F04795880FA4
:1012E00097FB991F61F09F3F79F08795089512163B
:1012F00013061406551FF2CF4695F1DF08C01616E7
:1013000017061806991FF1CF869571056105089497
:101310000895E894BB2766277727CB0197F90895AE
:101320002F923F924F925F926F927F928F929F92F5
:10133000AF92BF92CF92DF92EF92FF920F931F93E3
:10134000CF93DF93CDB7DEB7CA1BDB0B0FB6F89494
:10135000DEBF0FBECDBF09942A88398848885F84D4
:101360006E847D848C849B84AA84B984C884DF8045
:10137000EE80FD800C811B81AA81B981CE0FD11D29
:101380000FB6F894DEBF0FBECDBFED0108955058E3
:10139000BB27AA270E94DF090C9456090E9448091E
:1013A00038F00E944F0920F039F49F3F19F426F4D9
:1013B0000C9445090EF4E095E7FB0C943F09E92FE6
:1013C0000E94670958F3BA176207730784079507E5
:1013D00020F079F4A6F50C9489090EF4E0950B2E13
:1013E000BA2FA02D0B01B90190010C01CA01A00177
:1013F0001124FF27591B99F0593F50F4503E68F1D2
:101400001A16F040A22F232F342F4427585FF3CF12
:10141000469537952795A795F0405395C9F77EF4E3
:101420001F16BA0B620B730B840BBAF09150A1F02C
:10143000FF0FBB1F661F771F881FC2F70EC0BA0FB2
:10144000621F731F841F48F4879577956795B7953A
:10145000F7959E3F08F0B0CF9395880F08F0992735
:10146000EE0F9795879508950E94480A0C945609A7
:101470000E944F0958F00E94480940F029F45F3F4C
:1014800029F00C943F0951110C948A090C944509D8
:101490000E94670968F39923B1F3552391F3951BD3
:1014A000550BBB27AA2762177307840738F09F5F85
:1014B0005F4F220F331F441FAA1FA9F335D00E2EF2
:1014C0003AF0E0E832D091505040E695001CCAF75F
:1014D0002BD0FE2F29D0660F771F881FBB1F261722
:1014E00037074807AB07B0E809F0BB0B802DBF01F9
:1014F000FF2793585F4F3AF09E3F510578F00C94C8
:101500003F090C948A095F3FE4F3983ED4F3869533
:1015100077956795B795F7959F5FC9F7880F911DE8
:101520009695879597F90895E1E0660F771F881FD4
:10153000BB1F621773078407BA0720F0621B730B87
:10154000840BBA0BEE1F88F7E09508950E946F098F
:1015500088F09F5798F0B92F9927B751B0F0E1F074
:10156000660F771F881F991F1AF0BA95C9F714C024
:10157000B13091F00E948909B1E008950C94890975
:10158000672F782F8827B85F39F0B93FCCF386955D
:1015900077956795B395D9F73EF4909580957095BA
:1015A00061957F4F8F4F9F4F08950E94AE0808F4BA
:1015B0008FEF08950E94AE08880B990B0895A1E261
:1015C0001A2EAA1BBB1BFD010DC0AA1FBB1FEE1FBD
:1015D000FF1FA217B307E407F50720F0A21BB30B08
:1015E000E40BF50B661F771F881F991F1A9469F784
:1015F00060957095809590959B01AC01BD01CF01E0
:101600000895EE0FFF1F0590F491E02D0994CF93FC
:10161000DF938230910510F482E090E0E09129029E
:10162000F0912A0220E030E0C0E0D0E0309711F1E4
:101630004081518148175907C0F04817590761F494
:1016400082819381209719F09B838A832BC090938A
:101650002A028093290226C02115310519F042176C
:10166000530718F49A01BE01DF01EF010280F381F4
:10167000E02DDCCF2115310509F1281B390B243071
:10168000310590F412968D919C9113976115710517
:1016900021F0FB019383828304C090932A028093FC
:1016A0002902FD01329644C0FD01E20FF31F819330
:1016B0009193225031092D933C933AC020912702F7
:1016C00030912802232B41F4209102013091030133
:1016D00030932802209327022091000130910101CC
:1016E0002115310541F42DB73EB7409104015091C9
:1016F0000501241B350BE0912702F0912802E21727
:10170000F307A0F42E1B3F0B2817390778F0AC0124
:101710004E5F5F4F2417350748F04E0F5F1F509301
:101720002802409327028193919302C0E0E0F0E009
:10173000CF01DF91CF9108950F931F93CF93DF9344
:10174000009709F48CC0FC01329713821282009139
:10175000290210912A020115110581F4208131819D
:10176000820F931F209127023091280228173907F2
:1017700079F5F0932802E093270271C0D80140E088
:1017800050E0AE17BF0750F412962D913C9113977D
:10179000AD012115310509F1D901F3CF9D01DA0120
:1017A0003383228360817181860F971F821793078D
:1017B00069F4EC0128813981260F371F2E5F3F4FD6
:1017C000318320838A819B8193838283452B29F4F3
:1017D000F0932A02E093290242C01396FC93EE9301
:1017E0001297ED01499159919E01240F351FE2177F
:1017F000F30771F480819181840F951F02961196F1
:101800009C938E938281938113969C938E931297CF
:10181000E0E0F0E0D80112968D919C91139700972B
:1018200019F0F8018C01F6CF8D919C9198012E5FF3
:101830003F4F820F931F20912702309128022817D3
:10184000390769F4309729F410922A02109229027C
:1018500002C0138212821093280200932702DF91A4
:10186000CF911F910F910895A0E0B0E0EAE3FCE072
:101870000C949409EC01009721F4CB010E94070B12
:10188000B8C0FC01E60FF71F9C0122503109E21796
:10189000F30708F4ACC0D9010D911C9111970617FC
:1018A0001707B0F00530110508F49FC0C801049770
:1018B0008617970708F499C002501109061B170BE9
:1018C000019311936D937C93CF010E949C0B8DC06B
:1018D0005B01A01AB10A4C01800E911EA091290251
:1018E000B0912A0240E050E0E12CF12C109709F46D
:1018F0004AC0A815B905D1F56D907C901197630188
:1019000082E0C80ED11CCA14DB0480F1A3014A197D
:101910005B096A0182E0C80ED11C1296BC90129736
:101920001396AC91B5E0CB16D10440F0B282A383FC
:1019300051834083D9016D937C930AC00E5F1F4F82
:10194000C301800F911FF90191838083EB2DFA2F42
:10195000E114F10431F0D7011396FC93EE93129742
:1019600044C0F0932A02E09329023FC08D919C91DC
:1019700011974817590708F4AC017D0112960D9094
:10198000BC91A02DB3CF8091270290912802881599
:101990009905E1F446175707C8F48091000190912A
:1019A0000101009741F48DB79EB740910401509119
:1019B0000501841B950BE817F907C8F4F09328027A
:1019C000E0932702F901718360830FC0CB010E946D
:1019D000070B7C01009759F0A801BE010E94030D7E
:1019E000CE010E949C0BC70104C0CE0102C080E062
:1019F00090E0CDB7DEB7EEE00C94B00981E090E066
:101A0000F8940C94130DFB01DC0102C001900D92BF
:101A100041505040D8F70895FB01DC0101900D9230
:101A20000020E1F7089510E0CDE5D0E004C0FE010C
:101A30000E94010B2196CE35D107C9F7F894FFCF4C
:101A400000002B0280000000400014005400000041
:101A500000001302E3011E038B01A9019A018C010E
:101A600000000000170360011E031D036D2F7300AB
:101A70007370656564203D20006E616E00696E665E
:061A8000006F7666000015
:00000001FF
