:100000000C9463000C948B000C948B000C94EF0404
:100010000C94EF040C94EF040C948B000C948B0064
:100020000C948B000C948B000C948B000C94270682
:100030000C948B000C948B000C948B000C948B0014
:100040000C94A5040C948B000C948B000C948B00E6
:100050000C948B000C948B000C948B000C948B00F4
:100060000C94F9040C948B0000000000230026007F
:10007000290000000008000201000003040700003E
:1000800000000000000000000000250028002B00F8
:1000900000000000240027002A00040404040404D3
:1000A0000404020202020202030303030303010227
:1000B00004081020408001020408102001020408F6
:1000C0001020A4063B0811241FBECFEFD8E0DEBFEE
:1000D000CDBF22E0A6E4B1E001C01D92AD31B20770
:1000E000E1F711E0A0E0B1E0EAEFF9E102C005902C
:1000F0000D92A634B107D9F710E0C2E6D0E004C0F3
:100100002197FE010E94DE0AC136D107C9F70E947D
:1001100007070C94F00C0C940000CF93DF9390E051
:10012000FC01E255FF4F2491FC01E656FF4F8491FC
:100130008823C1F090E0880F991FFC01E057FF4F22
:10014000C591D491FC01EA57FF4FA591B4919FB797
:10015000F8948881E22FE0958E2388838C91E823A0
:10016000EC939FBFDF91CF910895833081F028F405
:10017000813099F08230A1F008958730A9F088305D
:10018000B9F08430D1F4809180008F7D03C08091DC
:1001900080008F7780938000089584B58F7702C0A8
:1001A00084B58F7D84BD08958091B0008F7703C0A2
:1001B0008091B0008F7D8093B0000895CF93DF933E
:1001C000282F30E0F901EE58FF4F8491F901E255F4
:1001D000FF4FD491F901E656FF4FC491CC2389F02B
:1001E00081110E94B500EC2FF0E0EE0FFF1FEA57DF
:1001F000FF4FA591B4918FB7F894EC91ED2BEC9350
:100200008FBFDF91CF910895CF93DF93282F30E0F8
:10021000F901EE58FF4F8491F901E255FF4FD49157
:10022000F901E656FF4FC491CC2391F081110E9451
:10023000B500EC2FF0E0EE0FFF1FE859FF4FA5913E
:10024000B491EC91ED2381E090E021F480E002C0D4
:1002500080E090E0DF91CF9108953FB7F8948091CE
:10026000E7019091E801A091E901B091EA0126B57A
:10027000A89B05C02F3F19F00196A11DB11D3FBFDE
:10028000BA2FA92F982F8827820F911DA11DB11D6C
:10029000BC01CD0142E0660F771F881F991F4A9568
:1002A000D1F708958F929F92AF92BF92CF92DF9233
:1002B000EF92FF926B017C010E942D014B015C01CA
:1002C000C114D104E104F104F1F00E942D01DC011C
:1002D000CB0188199909AA09BB09883E9340A10559
:1002E000B10570F321E0C21AD108E108F10888EEE7
:1002F000880E83E0981EA11CB11CC114D104E10436
:10030000F10419F7DDCFFF90EF90DF90CF90BF9011
:10031000AF909F908F900895CF92DF92EF92FF92CF
:100320000F931F93CF93DF936C017A018B01C0E091
:10033000D0E0CE15DF0589F0D8016D918D01D60191
:10034000ED91FC910190F081E02DC6010995892B7A
:1003500011F47E0102C02196ECCFC701DF91CF914D
:100360001F910F91FF90EF90DF90CF900895089527
:1003700081E090E03091DD012091DC01321710F432
:1003800080E090E091958195910908958091DD013B
:100390009091DC01891730F48F5F8093DD0180E05C
:1003A00090E008958FEF9FEF08958091DC0190E039
:1003B0002091DD01821B9109089585ED8093BC0099
:1003C0008091BC0084FDFCCF1092D901089540912A
:1003D0006B01262F30E0240F311D21323105DCF472
:1003E0002091D9012430C9F4FC0180E090E0861707
:1003F00058F430916B012191DC01A75BBE4FA30F34
:10040000B11D2C930196F3CF80916B01680F60931F
:100410006B0180E0089581E0089582E00895CF9215
:10042000DF92EF92FF920F931F93CF93DF937C01A4
:10043000262F972F8A018091D401882391F0C62F0F
:10044000D72F6E01C40ED51ECC15DD0571F0699154
:10045000D701ED91FC910190F081E02DC701099544
:10046000F3CF642F822F0E94E701C801DF91CF9163
:100470001F910F91FF90EF90DF90CF900895CF9351
:10048000DF931F92CDB7DEB769832091D401222379
:10049000D1F02091DA01203240F021E030E0FC017F
:1004A0003383228380E090E015C08091DB01E82F48
:1004B000F0E0EC54FE4F998190838F5F8093DB01D5
:1004C0008093DA0105C061E0CE0101960E94E70148
:1004D00081E090E00F90DF91CF910895CF93FC01E0
:1004E000C48121E02093D401C09348011092DB0124
:1004F0001092DA018385682B8BEE91E00E943F0217
:100500008091DA01813208F046C09091D9019111B1
:10051000FCCF92E09093D90191E09093D8019FEFA6
:10052000909390011092B2018093B101A4EBB1E0DD
:1005300021E931E0F9019E2F921B981718F49D9143
:100540009193F9CF1092B3018091B301CC0FC82BD6
:10055000C093B3018091D701813061F41092D7012B
:100560008091B3018093BB008091BC0083FDF8CFE4
:1005700085EC01C085EE8093BC008091D90182306A
:10058000E1F3809190018F3F31F0809190018032B2
:1005900011F0809190011092DB011092DA0110921B
:1005A000D401CF9108950F931F93CF938C01C62F41
:1005B0000E946E026C2F6460C8010E946E026C2F54
:1005C0006B7FC8010E946E0283EC90E00197F1F707
:1005D000CF911F910F910895FF920F931F93CF9387
:1005E000DF931F92CDB7DEB78C01F62E962F907F4A
:1005F000692F642BC80149830E94D30280E1F89ED1
:10060000B00111244981642BC8010F90DF91CF9173
:100610001F910F91FF900C94D302CF93DF93CDB72E
:10062000DEB728970FB6F894DEBF0FBECDBF682F98
:1006300098E0E6E0F1E0DE01119601900D929A95C6
:10064000E1F7E1E0809109028111E0E0E195F0E05D
:10065000EE0FFF1F81E090E08C0F9D1FE80FF91F48
:100660009081690F606840E081E092E028960FB6C3
:10067000F894DEBF0FBECDBFDF91CF910C94EC029A
:1006800041E00E94EC0281E090E00895089580E04E
:1006900090E00895009769F0FC0101900020E9F7CF
:1006A0003197AF01481B590BBC0181E092E00C94DB
:1006B0008C0180E090E008958F929F92AF92BF925C
:1006C0000F931F93CF93DF93CDB7DEB7A1970FB6EC
:1006D000F894DEBF0FBECDBF19A2423008F44AE045
:1006E0008E010F5D1F4F842E912CA12CB12CA501E2
:1006F00094010E94BC0AE62FB901CA0101501109F8
:10070000EA3014F4E05D01C0E95CD801EC93232BDE
:10071000242B252B61F7C8010E944A03A1960FB62E
:10072000F894DEBF0FBECDBFDF91CF911F910F9127
:10073000BF90AF909F908F9008958F929F92AF92AD
:10074000BF92CF92DF92EF92FF926B017C0188E023
:100750000E940D03A7019601C701B6010E94B70AC6
:10076000882319F08CE291E01AC046015701E89401
:10077000B7F82FEF3FEF4FE75FE7C501B4010E94E5
:10078000B70A811116C02FEF3FEF4FE75FE7C501B2
:10079000B4010E944908181664F480E391E0FF90C8
:1007A000EF90DF90CF90BF90AF909F908F900C9480
:1007B0004A032FEF3FEF4FE75FE4C701B6010E9406
:1007C000B20A18161CF484E391E0E9CF2FEF3FEF53
:1007D0004FE75FECC701B6010E94490887FDF3CFE0
:1007E00020E030E0A901C701B6010E94490887FF57
:1007F0000FC0E0910102F09102020190F081E02D22
:100800006DE281E092E00995F7FAF094F7F8F09440
:100810002AE037ED43EA5BE3C701B6010E94A50970
:100820004B015C010E94830A6B017C010E944E080F
:100830009B01AC01C501B4010E94A4094B015C01FC
:100840004AE0C701B6010E945C03E0910102F09109
:1008500002020190F081E02D6EE281E092E00995C4
:1008600020E030E040E251E4C501B4010E94AF084D
:100870004B015C010E94830A6B01E12CF12C4AE0E0
:10088000C701B6010E945C03C701B6010E944E0871
:100890009B01AC01C501B4010E94A40920E030E035
:1008A00040E251E40E94AF080E94830A80E090E099
:1008B0004AE0FF90EF90DF90CF90BF90AF909F9075
:1008C0008F900C945C03EF92FF920F931F93CF9342
:1008D000DF93EC017B018A0188819981009729F0DF
:1008E0002A813B8124173507F8F4B8016F5F7F4FE9
:1008F0000E94110C009759F0998388831B830A8307
:100900002C813D81232B81F4FC0110820DC0888154
:100910009981009711F00E94790B198218821D822B
:100920001C821B821A8207C01D830C83B701888139
:1009300099810E94E90CCE01DF91CF911F910F9117
:10094000FF90EF9008950E94DB0C1F920F920FB65C
:100950000F9211242F933F938F939F93AF93BF9345
:100960008091E3019091E401A091E501B091E6014D
:100970003091E20123E0230F2D3720F40196A11DD1
:10098000B11D05C026E8230F0296A11DB11D2093BD
:10099000E2018093E3019093E401A093E501B09319
:1009A000E6018091E7019091E801A091E901B09101
:1009B000EA010196A11DB11D8093E7019093E80122
:1009C000A093E901B093EA01BF91AF919F918F91FC
:1009D0003F912F910F900FBE0F901F9018951F926F
:1009E0000F920FB60F9211240F900FBE0F901F9011
:1009F00018951F920F920FB60F9211242F933F93C9
:100A00004F935F936F937F938F939F93AF93BF9316
:100A1000EF93FF938091B900887F803609F49CC0E2
:100A200068F5883209F45BC090F4803109F454C051
:100A300038F4882309F4F6C0883009F44DC0F6C0B4
:100A4000883109F44CC0803209F45DC0EFC08034B5
:100A500009F468C048F4803309F455C0883309F0BC
:100A6000E5C080939001D8C0803509F44FC0883527
:100A700009F45DC0883409F0D9C0D6C0883909F4BA
:100A8000C7C0A8F4883709F467C038F4883609F479
:100A900063C0803709F460C0C9C0883809F4B8C0A1
:100AA000803909F45FC0803809F0C0C05BC0803B6A
:100AB00009F486C038F4803A09F466C0883A09F42B
:100AC0007FC0B4C0803C09F4A7C0883C09F4A4C02E
:100AD000883B09F48AC0AAC08091B30110C09091EC
:100AE000B2018091B101981770F5E091B20181E0F7
:100AF0008E0F8093B201F0E0EF56FE4F808180931D
:100B0000BB0085EC86C0809390018EC0E091B2015D
:100B100081E08E0F8093B2018091BB00F0E0EF5630
:100B2000FE4F80839091B2018091B1016EC0E0913F
:100B3000B20181E08E0F8093B2018091BB00F0E0A2
:100B4000EF56FE4F80838091D80181116DC081E006
:100B50008093D70184EA61C083E08093D901109229
:100B60008F01CFCF80918F01803208F051C0E0918A
:100B70008F0181E08E0F80938F018091BB00F0E0A8
:100B8000E159FE4F8083BDCF85EC8093BC0010926D
:100B9000D90180918F01803230F4E0918F01F0E033
:100BA000E159FE4F108260918F0170E0E0916D017C
:100BB000F0916E018FE691E0099510928F0136C099
:100BC00084E08093D90110926C0110926B01E09146
:100BD0006901F0916A01099580916B01811105C04D
:100BE00081E080936B0110924901E0916C0181E0FA
:100BF0008E0F80936C01F0E0E75BFE4F8081809365
:100C0000BB0090916C0180916B01981708F479CF2B
:100C100085E88093BC000AC085EC8093BC001092EC
:100C2000D90104C0109290010E94DD01FF91EF9163
:100C3000BF91AF919F918F917F916F915F914F91F4
:100C40003F912F910F900FBE0F901F9018951F92FC
:100C50000F920FB60F9211242F933F934F935F93F0
:100C60006F937F938F939F93AF93BF93EF93FF9374
:100C70008091FC018093FD018091FB010E940401A1
:100C80008093FC019091FD01891719F081E0809318
:100C9000FE018091F8018093F9018091F7010E9493
:100CA00004018093F8019091F901891719F081E00E
:100CB0008093FA018091FE01811104C08091FA01B4
:100CC000882341F16091460170914701072E000C85
:100CD000880B990B0E94500820E030E0A9010E9487
:100CE000AF089B01AC0160E070E0CB010E94110AEB
:100CF0002AE037ED43E25DE30E94AF086093DE0136
:100D00007093DF018093E0019093E101109247011D
:100D1000109246018091460190914701019690936F
:100D2000470180934601FF91EF91BF91AF919F9151
:100D30008F917F916F915F914F913F912F910F9084
:100D40000FBE0F901F9018951F93CF93DF93EBEE7C
:100D5000F1E01382128288EE93E0A0E0B0E0848399
:100D60009583A683B78382E191E091838083CFEF5F
:100D7000D1E01D821C8284E291E09B838A8387E21A
:100D80008E8380E18B8712E01C871D861F861E865E
:100D9000198A188A1B8A1A8A40E050E064E471E0DC
:100DA0008DE092E00E9463041D8A1C8A1F8A1E8ABD
:100DB000198E188E40E050E064E471E083E192E027
:100DC0000E94630484EF91E09983888343E050E0BC
:100DD00068E371E08DE092E00E94630448E050E037
:100DE0006CE371E083E192E00E946304EBEFF1E0D9
:100DF0001083118212821382E7EFF1E083E0808397
:100E0000118212821382DF91CF911F9108957894FD
:100E100084B5826084BD84B5816084BD85B58260FF
:100E200085BD85B5816085BD80916E0081608093B0
:100E30006E00109281008091810082608093810019
:100E40008091810081608093810080918000816029
:100E5000809380008091B10084608093B100809184
:100E6000B00081608093B00080917A0084608093AC
:100E70007A0080917A00826080937A0080917A0073
:100E8000816080937A0080917A00806880937A00F4
:100E90001092C1001092DD011092DC011092DB0172
:100EA0001092DA011092D90181E08093D80110925A
:100EB000D70182E10E94DE0083E10E94DE00809182
:100EC000B9008E7F8093B9008091B9008D7F8093A7
:100ED000B90088E48093B80085E48093BC00109248
:100EE000060280910B02823018F098E0909306027F
:100EF0008093090262E370E080E090E00E9452017A
:100F000060910C0281E092E00E946E0268EE73E054
:100F100080E090E00E94520160E381E092E00E9454
:100F2000D302CBE4D6E4CE010197F1F760E381E090
:100F300092E00E94D3022197F1F760E381E092E012
:100F40000E94D30283E592E00197F1F760E281E02D
:100F500092E00E94D30260910602606240E081E06C
:100F600092E00E94EC0284E08093070240E06CE093
:100F700081E092E00E94EC0240E061E081E092E0DA
:100F80000E94EC02CBE3DFE1CE010197F1F782E0B2
:100F90008093080240E066E081E092E00E94EC026B
:100FA00040E062E081E092E00E94EC022197F1F7DC
:100FB00088E080930C0260E081E092E00E946E0283
:100FC00080E00E940D034091170250911802609139
:100FD00013027091140281E092E00E948C018DE076
:100FE0000E940D03409111025091120260910D0276
:100FF00070910E0281E092E00E948C0160E070E04E
:10100000CB010E949D03F894109280001092810001
:1010100010928500109284008FE190E090938900F7
:101020008093880080918100886080938100809106
:10103000810081608093810080916F008260809345
:101040006F0078948091FB010E948D008091F701E0
:101050000E948D00C0E0D0E06091DE017091DF0160
:101060008091E0019091E1010E949D032097A1F3FE
:101070000E940000F1CFCF93DF93CFEFD1E08C89B6
:101080009D890E94790B8E859F85DF91CF910C946D
:10109000790B0E948B0808F481E00895E89409C058
:1010A00097FB3EF490958095709561957F4F8F4F9B
:1010B0009F4F9923A9F0F92F96E9BB279395F695B1
:1010C000879577956795B795F111F8CFFAF4BB0F2F
:1010D00011F460FF1BC06F5F7F4F8F4F9F4F16C093
:1010E000882311F096E911C0772321F09EE8872F1D
:1010F000762F05C0662371F096E8862F70E060E0D9
:101100002AF09A95660F771F881FDAF7880F969551
:10111000879597F90895990F0008550FAA0BE0E8F5
:10112000FEEF16161706E807F907C0F012161306A9
:10113000E407F50798F0621B730B840B950B39F4E9
:101140000A2661F0232B242B252B21F408950A264F
:1011500009F4A140A6958FEF811D811D08950E947D
:10116000C2080C9433090E94250938F00E942C090A
:1011700020F0952311F00C941C090C9422091124E1
:101180000C9467090E94440970F3959FC1F3950F71
:1011900050E0551F629FF001729FBB27F00DB11DFB
:1011A000639FAA27F00DB11DAA1F649F6627B00D8B
:1011B000A11D661F829F2227B00DA11D621F739F74
:1011C000B00DA11D621F839FA00D611D221F749F82
:1011D0003327A00D611D231F849F600D211D822FC9
:1011E000762F6A2F11249F5750409AF0F1F08823F0
:1011F0004AF0EE0FFF1FBB1F661F771F881F91501D
:101200005040A9F79E3F510580F00C941C090C94A6
:1012100067095F3FE4F3983ED4F386957795679529
:10122000B795F795E7959F5FC1F7FE2B880F911D46
:101230009695879597F9089597F99F6780E870E0EC
:1012400060E008959FEF80EC089500240A9416163C
:10125000170618060906089500240A9412161306A4
:10126000140605060895092E0394000C11F4882332
:1012700052F0BB0F40F4BF2B11F460FF04C06F5F4E
:101280007F4F8F4F9F4F089557FD9058440F551F24
:1012900059F05F3F71F04795880F97FB991F61F0F8
:1012A0009F3F79F087950895121613061406551F6F
:1012B000F2CF4695F1DF08C0161617061806991FDB
:1012C000F1CF86957105610508940895E894BB27D0
:1012D00066277727CB0197F908952F923F924F9277
:1012E0005F926F927F928F929F92AF92BF92CF92B6
:1012F000DF92EF92FF920F931F93CF93DF93CDB7BF
:10130000DEB7CA1BDB0B0FB6F894DEBF0FBECDBF36
:1013100009942A88398848885F846E847D848C8407
:101320009B84AA84B984C884DF80EE80FD800C8110
:101330001B81AA81B981CE0FD11D0FB6F894DEBFF3
:101340000FBECDBFED0108955058BB27AA270E94BC
:10135000BC090C9433090E94250938F00E942C091D
:1013600020F039F49F3F19F426F40C9422090EF46E
:10137000E095E7FB0C941C09E92F0E94440958F3FF
:10138000BA17620773078407950720F079F4A6F56A
:101390000C9466090EF4E0950B2EBA2FA02D0B01CC
:1013A000B90190010C01CA01A0011124FF27591BAA
:1013B00099F0593F50F4503E68F11A16F040A22FB0
:1013C000232F342F4427585FF3CF46953795279521
:1013D000A795F0405395C9F77EF41F16BA0B620B20
:1013E000730B840BBAF09150A1F0FF0FBB1F661F67
:1013F000771F881FC2F70EC0BA0F621F731F841FAA
:1014000048F4879577956795B795F7959E3F08F0CF
:10141000B0CF9395880F08F09927EE0F9795879591
:1014200008950E94250A0C9433090E942C0958F053
:101430000E94250940F029F45F3F29F00C941C0913
:1014400051110C9467090C9422090E94440968F315
:101450009923B1F3552391F3951B550BBB27AA276D
:1014600062177307840738F09F5F5F4F220F331FA7
:10147000441FAA1FA9F335D00E2E3AF0E0E832D06F
:1014800091505040E695001CCAF72BD0FE2F29D072
:10149000660F771F881FBB1F261737074807AB0744
:1014A000B0E809F0BB0B802DBF01FF2793585F4FB9
:1014B0003AF09E3F510578F00C941C090C94670992
:1014C0005F3FE4F3983ED4F3869577956795B7959B
:1014D000F7959F5FC9F7880F911D9695879597F9A6
:1014E0000895E1E0660F771F881FBB1F621773071F
:1014F0008407BA0720F0621B730B840BBA0BEE1F34
:1015000088F7E09508950E944C0988F09F5798F05D
:10151000B92F9927B751B0F0E1F0660F771F881FF8
:10152000991F1AF0BA95C9F714C0B13091F00E9412
:101530006609B1E008950C946609672F782F882713
:10154000B85F39F0B93FCCF3869577956795B39539
:10155000D9F73EF490958095709561957F4F8F4FA8
:101560009F4F08950E948B0808F48FEF08950E9402
:101570008B08880B990B0895A1E21A2EAA1BBB1B9E
:10158000FD010DC0AA1FBB1FEE1FFF1FA217B3074F
:10159000E407F50720F0A21BB30BE40BF50B661F65
:1015A000771F881F991F1A9469F760957095809529
:1015B00090959B01AC01BD01CF010895EE0FFF1F77
:1015C0000590F491E02D0994CF93DF93823091053B
:1015D00010F482E090E0E0911B02F0911C0220E008
:1015E00030E0C0E0D0E0309711F1408151814817E0
:1015F0005907C0F04817590761F4828193812097F9
:1016000019F09B838A832BC090931C0280931B024A
:1016100026C02115310519F04217530718F49A0115
:10162000BE01DF01EF010280F381E02DDCCF211547
:10163000310509F1281B390B2430310590F412963D
:101640008D919C9113976115710521F0FB01938396
:10165000828304C090931C0280931B02FD0132968A
:1016600044C0FD01E20FF31F819391932250310991
:101670002D933C933AC02091190230911A02232BEA
:1016800041F4209102013091030130931A0220931A
:10169000190220910001309101012115310541F419
:1016A0002DB73EB74091040150910501241B350B25
:1016B000E0911902F0911A02E217F307A0F42E1B31
:1016C0003F0B2817390778F0AC014E5F5F4F2417A6
:1016D000350748F04E0F5F1F50931A0240931902CE
:1016E0008193919302C0E0E0F0E0CF01DF91CF91D0
:1016F00008950F931F93CF93DF93009709F48CC045
:10170000FC0132971382128200911B0210911C027D
:101710000115110581F420813181820F931F2091E1
:10172000190230911A022817390779F5F0931A0235
:10173000E093190271C0D80140E050E0AE17BF0736
:1017400050F412962D913C911397AD01211531055E
:1017500009F1D901F3CF9D01DA013383228360813E
:101760007181860F971F8217930769F4EC01288116
:101770003981260F371F2E5F3F4F318320838A81A7
:101780009B8193838283452B29F4F0931C02E09381
:101790001B0242C01396FC93EE931297ED01499100
:1017A00059919E01240F351FE217F30771F48081D0
:1017B0009181840F951F029611969C938E9382813E
:1017C000938113969C938E931297E0E0F0E0D801FA
:1017D00012968D919C911397009719F0F8018C0146
:1017E000F6CF8D919C9198012E5F3F4F820F931FF2
:1017F0002091190230911A022817390769F430979D
:1018000029F410921C0210921B0202C01382128251
:1018100010931A0200931902DF91CF911F910F913B
:101820000895A0E0B0E0E7E1FCE00C947109EC0160
:10183000009721F4CB010E94E40AB8C0FC01E60F36
:10184000F71F9C0122503109E217F30708F4ACC0DE
:10185000D9010D911C91119706171707B0F00530AB
:10186000110508F49FC0C80104978617970708F46C
:1018700099C002501109061B170B019311936D9328
:101880007C93CF010E94790B8DC05B01A01AB10A35
:101890004C01800E911EA0911B02B0911C0240E0F1
:1018A00050E0E12CF12C109709F44AC0A815B905B5
:1018B000D1F56D907C901197630182E0C80ED11C28
:1018C000CA14DB0480F1A3014A195B096A0182E0B2
:1018D000C80ED11C1296BC9012971396AC91B5E02D
:1018E000CB16D10440F0B282A38351834083D90147
:1018F0006D937C930AC00E5F1F4FC301800F911F31
:10190000F90191838083EB2DFA2FE114F10431F07A
:10191000D7011396FC93EE93129744C0F0931C02E8
:10192000E0931B023FC08D919C9111974817590776
:1019300008F4AC017D0112960D90BC91A02DB3CF9F
:101940008091190290911A0288159905E1F44617C1
:101950005707C8F48091000190910101009741F46C
:101960008DB79EB74091040150910501841B950BE2
:10197000E817F907C8F4F0931A02E0931902F90185
:10198000718360830FC0CB010E94E40A7C01009741
:1019900059F0A801BE010E94E00CCE010E94790B13
:1019A000C70104C0CE0102C080E090E0CDB7DEB731
:1019B000EEE00C948D0981E090E0F8940C94F00C2A
:1019C000FB01DC0102C001900D9241505040D8F75C
:1019D0000895FB01DC0101900D920020E1F70895CC
:1019E00010E0C2E6D0E004C0FE010E94DE0A2196AB
:0A19F000C336D107C9F7F894FFCF02
:1019FA0000001D0280000000400014005400000096
:101A0A0000003F020F024703B701D501C601B80122
:101A1A000000000040038C01470346036E616E001C
:101A2A00696E66006F7666006D2F73007370656568
:061A3A0064203D200000C5
:00000001FF
